{
  "contractName": "UPAY",
  "abi": [
    {
      "inputs": [],
      "name": "getMyDetails",
      "outputs": [
        {
          "components": [
            {
              "internalType": "address",
              "name": "Address",
              "type": "address"
            },
            {
              "internalType": "string",
              "name": "Name",
              "type": "string"
            },
            {
              "internalType": "uint256",
              "name": "balance",
              "type": "uint256"
            },
            {
              "internalType": "bool",
              "name": "isAvailabe",
              "type": "bool"
            },
            {
              "internalType": "uint256",
              "name": "totalTransaction",
              "type": "uint256"
            }
          ],
          "internalType": "struct UPAY.userDetails",
          "name": "",
          "type": "tuple"
        }
      ],
      "stateMutability": "view",
      "type": "function",
      "constant": true
    },
    {
      "inputs": [
        {
          "internalType": "address",
          "name": "Address",
          "type": "address"
        },
        {
          "internalType": "uint256",
          "name": "balance",
          "type": "uint256"
        },
        {
          "internalType": "uint256",
          "name": "time",
          "type": "uint256"
        }
      ],
      "name": "sendBalance",
      "outputs": [],
      "stateMutability": "nonpayable",
      "type": "function"
    },
    {
      "inputs": [],
      "name": "myBalance",
      "outputs": [
        {
          "internalType": "uint256",
          "name": "",
          "type": "uint256"
        }
      ],
      "stateMutability": "view",
      "type": "function",
      "constant": true
    },
    {
      "inputs": [
        {
          "internalType": "string",
          "name": "_name",
          "type": "string"
        }
      ],
      "name": "createAccount",
      "outputs": [],
      "stateMutability": "nonpayable",
      "type": "function"
    },
    {
      "inputs": [],
      "name": "getAllAdress",
      "outputs": [
        {
          "internalType": "address[]",
          "name": "",
          "type": "address[]"
        }
      ],
      "stateMutability": "view",
      "type": "function",
      "constant": true
    },
    {
      "inputs": [],
      "name": "getMyName",
      "outputs": [
        {
          "internalType": "string",
          "name": "",
          "type": "string"
        }
      ],
      "stateMutability": "view",
      "type": "function",
      "constant": true
    },
    {
      "inputs": [],
      "name": "getMyAddress",
      "outputs": [
        {
          "internalType": "address",
          "name": "",
          "type": "address"
        }
      ],
      "stateMutability": "view",
      "type": "function",
      "constant": true
    },
    {
      "inputs": [],
      "name": "doIHaveAccount",
      "outputs": [
        {
          "internalType": "bool",
          "name": "",
          "type": "bool"
        }
      ],
      "stateMutability": "view",
      "type": "function",
      "constant": true
    },
    {
      "inputs": [],
      "name": "getMyTransactionHistory",
      "outputs": [
        {
          "components": [
            {
              "internalType": "address",
              "name": "from",
              "type": "address"
            },
            {
              "internalType": "address",
              "name": "to",
              "type": "address"
            },
            {
              "internalType": "uint256",
              "name": "time",
              "type": "uint256"
            },
            {
              "internalType": "uint256",
              "name": "balance",
              "type": "uint256"
            }
          ],
          "internalType": "struct UPAY.transaction[]",
          "name": "",
          "type": "tuple[]"
        }
      ],
      "stateMutability": "view",
      "type": "function",
      "constant": true
    }
  ],
  "bytecode": "0x608060405234801561001057600080fd5b5061177e806100206000396000f3fe608060405234801561001057600080fd5b50600436106100935760003560e01c806375a54bc21161006657806375a54bc21461010e5780637b427f2d1461012c5780639a1662991461014a578063b49a6d3c14610168578063c9116b691461018457610093565b8063298daf5b1461009857806334a505f4146100b4578063431bbb7e146100d2578063754489ad146100f0575b600080fd5b6100b260048036038101906100ad919061104e565b6101a2565b005b6100bc61037f565b6040516100c991906111f5565b60405180910390f35b6100da610646565b6040516100e79190611330565b60405180910390f35b6100f86107b4565b6040516101059190611361565b60405180910390f35b61011661080b565b60405161012391906113c6565b60405180910390f35b6101346108dd565b6040516101419190611497565b60405180910390f35b61015261096b565b60405161015f91906114c8565b60405180910390f35b610182600480360381019061017d919061153b565b610973565b005b61018c610d6c565b604051610199919061159d565b60405180910390f35b600260003373ffffffffffffffffffffffffffffffffffffffff1673ffffffffffffffffffffffffffffffffffffffff16815260200190815260200160002060030160009054906101000a900460ff1661037c5760006040518060a001604052803373ffffffffffffffffffffffffffffffffffffffff168152602001838152602001601481526020016001151581526020016000815250905080600260003373ffffffffffffffffffffffffffffffffffffffff1673ffffffffffffffffffffffffffffffffffffffff16815260200190815260200160002060008201518160000160006101000a81548173ffffffffffffffffffffffffffffffffffffffff021916908373ffffffffffffffffffffffffffffffffffffffff16021790555060208201518160010190805190602001906102df929190610db6565b506040820151816002015560608201518160030160006101000a81548160ff021916908315150217905550608082015181600401559050506000339080600181540180825580915050600190039060005260206000200160009091909190916101000a81548173ffffffffffffffffffffffffffffffffffffffff021916908373ffffffffffffffffffffffffffffffffffffffff160217905550505b50565b60606000600260003373ffffffffffffffffffffffffffffffffffffffff1673ffffffffffffffffffffffffffffffffffffffff1681526020019081526020016000206004015467ffffffffffffffff8111156103df576103de610f23565b5b60405190808252806020026020018201604052801561041857816020015b610405610e3c565b8152602001906001900390816103fd5790505b50905060005b60018054905081101561063e573373ffffffffffffffffffffffffffffffffffffffff1660018281548110610456576104556115b8565b5b906000526020600020906004020160000160009054906101000a900473ffffffffffffffffffffffffffffffffffffffff1673ffffffffffffffffffffffffffffffffffffffff16148061051a57503373ffffffffffffffffffffffffffffffffffffffff16600182815481106104d0576104cf6115b8565b5b906000526020600020906004020160010160009054906101000a900473ffffffffffffffffffffffffffffffffffffffff1673ffffffffffffffffffffffffffffffffffffffff16145b1561062b5760018181548110610533576105326115b8565b5b90600052602060002090600402016040518060800160405290816000820160009054906101000a900473ffffffffffffffffffffffffffffffffffffffff1673ffffffffffffffffffffffffffffffffffffffff1673ffffffffffffffffffffffffffffffffffffffff1681526020016001820160009054906101000a900473ffffffffffffffffffffffffffffffffffffffff1673ffffffffffffffffffffffffffffffffffffffff1673ffffffffffffffffffffffffffffffffffffffff1681526020016002820154815260200160038201548152505082828151811061061f5761061e6115b8565b5b60200260200101819052505b808061063690611616565b91505061041e565b508091505090565b61064e610e90565b600260003373ffffffffffffffffffffffffffffffffffffffff1673ffffffffffffffffffffffffffffffffffffffff1681526020019081526020016000206040518060a00160405290816000820160009054906101000a900473ffffffffffffffffffffffffffffffffffffffff1673ffffffffffffffffffffffffffffffffffffffff1673ffffffffffffffffffffffffffffffffffffffff1681526020016001820180546106fe9061168d565b80601f016020809104026020016040519081016040528092919081815260200182805461072a9061168d565b80156107775780601f1061074c57610100808354040283529160200191610777565b820191906000526020600020905b81548152906001019060200180831161075a57829003601f168201915b50505050508152602001600282015481526020016003820160009054906101000a900460ff16151515158152602001600482015481525050905090565b6000600260003373ffffffffffffffffffffffffffffffffffffffff1673ffffffffffffffffffffffffffffffffffffffff16815260200190815260200160002060030160009054906101000a900460ff16905090565b6060600260003373ffffffffffffffffffffffffffffffffffffffff1673ffffffffffffffffffffffffffffffffffffffff168152602001908152602001600020600101805461085a9061168d565b80601f01602080910402602001604051908101604052809291908181526020018280546108869061168d565b80156108d35780601f106108a8576101008083540402835291602001916108d3565b820191906000526020600020905b8154815290600101906020018083116108b657829003601f168201915b5050505050905090565b6060600080548060200260200160405190810160405280929190818152602001828054801561096157602002820191906000526020600020905b8160009054906101000a900473ffffffffffffffffffffffffffffffffffffffff1673ffffffffffffffffffffffffffffffffffffffff1681526020019060010190808311610917575b5050505050905090565b600033905090565b600260008473ffffffffffffffffffffffffffffffffffffffff1673ffffffffffffffffffffffffffffffffffffffff16815260200190815260200160002060030160009054906101000a900460ff1615610d6757600260003373ffffffffffffffffffffffffffffffffffffffff1673ffffffffffffffffffffffffffffffffffffffff16815260200190815260200160002060030160009054906101000a900460ff168015610a66575081600260003373ffffffffffffffffffffffffffffffffffffffff1673ffffffffffffffffffffffffffffffffffffffff1681526020019081526020016000206002015410155b15610d665781600260003373ffffffffffffffffffffffffffffffffffffffff1673ffffffffffffffffffffffffffffffffffffffff16815260200190815260200160002060020154610ab991906116be565b600260003373ffffffffffffffffffffffffffffffffffffffff1673ffffffffffffffffffffffffffffffffffffffff1681526020019081526020016000206002018190555081600260008573ffffffffffffffffffffffffffffffffffffffff1673ffffffffffffffffffffffffffffffffffffffff16815260200190815260200160002060020154610b4d91906116f2565b600260008573ffffffffffffffffffffffffffffffffffffffff1673ffffffffffffffffffffffffffffffffffffffff16815260200190815260200160002060020181905550600260008473ffffffffffffffffffffffffffffffffffffffff1673ffffffffffffffffffffffffffffffffffffffff1681526020019081526020016000206004016000815480929190610be690611616565b9190505550600260003373ffffffffffffffffffffffffffffffffffffffff1673ffffffffffffffffffffffffffffffffffffffff1681526020019081526020016000206004016000815480929190610c3e90611616565b9190505550600060405180608001604052803373ffffffffffffffffffffffffffffffffffffffff1681526020018573ffffffffffffffffffffffffffffffffffffffff168152602001838152602001848152509050600181908060018154018082558091505060019003906000526020600020906004020160009091909190915060008201518160000160006101000a81548173ffffffffffffffffffffffffffffffffffffffff021916908373ffffffffffffffffffffffffffffffffffffffff16021790555060208201518160010160006101000a81548173ffffffffffffffffffffffffffffffffffffffff021916908373ffffffffffffffffffffffffffffffffffffffff16021790555060408201518160020155606082015181600301555050505b5b505050565b6000600260003373ffffffffffffffffffffffffffffffffffffffff1673ffffffffffffffffffffffffffffffffffffffff16815260200190815260200160002060020154905090565b828054610dc29061168d565b90600052602060002090601f016020900481019282610de45760008555610e2b565b82601f10610dfd57805160ff1916838001178555610e2b565b82800160010185558215610e2b579182015b82811115610e2a578251825591602001919060010190610e0f565b5b509050610e389190610ed7565b5090565b6040518060800160405280600073ffffffffffffffffffffffffffffffffffffffff168152602001600073ffffffffffffffffffffffffffffffffffffffff16815260200160008152602001600081525090565b6040518060a00160405280600073ffffffffffffffffffffffffffffffffffffffff1681526020016060815260200160008152602001600015158152602001600081525090565b5b80821115610ef0576000816000905550600101610ed8565b5090565b6000604051905090565b600080fd5b600080fd5b600080fd5b600080fd5b6000601f19601f8301169050919050565b7f4e487b7100000000000000000000000000000000000000000000000000000000600052604160045260246000fd5b610f5b82610f12565b810181811067ffffffffffffffff82111715610f7a57610f79610f23565b5b80604052505050565b6000610f8d610ef4565b9050610f998282610f52565b919050565b600067ffffffffffffffff821115610fb957610fb8610f23565b5b610fc282610f12565b9050602081019050919050565b82818337600083830152505050565b6000610ff1610fec84610f9e565b610f83565b90508281526020810184848401111561100d5761100c610f0d565b5b611018848285610fcf565b509392505050565b600082601f83011261103557611034610f08565b5b8135611045848260208601610fde565b91505092915050565b60006020828403121561106457611063610efe565b5b600082013567ffffffffffffffff81111561108257611081610f03565b5b61108e84828501611020565b91505092915050565b600081519050919050565b600082825260208201905092915050565b6000819050602082019050919050565b600073ffffffffffffffffffffffffffffffffffffffff82169050919050565b60006110ee826110c3565b9050919050565b6110fe816110e3565b82525050565b6000819050919050565b61111781611104565b82525050565b60808201600082015161113360008501826110f5565b50602082015161114660208501826110f5565b506040820151611159604085018261110e565b50606082015161116c606085018261110e565b50505050565b600061117e838361111d565b60808301905092915050565b6000602082019050919050565b60006111a282611097565b6111ac81856110a2565b93506111b7836110b3565b8060005b838110156111e85781516111cf8882611172565b97506111da8361118a565b9250506001810190506111bb565b5085935050505092915050565b6000602082019050818103600083015261120f8184611197565b905092915050565b600081519050919050565b600082825260208201905092915050565b60005b83811015611251578082015181840152602081019050611236565b83811115611260576000848401525b50505050565b600061127182611217565b61127b8185611222565b935061128b818560208601611233565b61129481610f12565b840191505092915050565b60008115159050919050565b6112b48161129f565b82525050565b600060a0830160008301516112d260008601826110f5565b50602083015184820360208601526112ea8282611266565b91505060408301516112ff604086018261110e565b50606083015161131260608601826112ab565b506080830151611325608086018261110e565b508091505092915050565b6000602082019050818103600083015261134a81846112ba565b905092915050565b61135b8161129f565b82525050565b60006020820190506113766000830184611352565b92915050565b600082825260208201905092915050565b600061139882611217565b6113a2818561137c565b93506113b2818560208601611233565b6113bb81610f12565b840191505092915050565b600060208201905081810360008301526113e0818461138d565b905092915050565b600081519050919050565b600082825260208201905092915050565b6000819050602082019050919050565b600061142083836110f5565b60208301905092915050565b6000602082019050919050565b6000611444826113e8565b61144e81856113f3565b935061145983611404565b8060005b8381101561148a5781516114718882611414565b975061147c8361142c565b92505060018101905061145d565b5085935050505092915050565b600060208201905081810360008301526114b18184611439565b905092915050565b6114c2816110e3565b82525050565b60006020820190506114dd60008301846114b9565b92915050565b6114ec816110e3565b81146114f757600080fd5b50565b600081359050611509816114e3565b92915050565b61151881611104565b811461152357600080fd5b50565b6000813590506115358161150f565b92915050565b60008060006060848603121561155457611553610efe565b5b6000611562868287016114fa565b935050602061157386828701611526565b925050604061158486828701611526565b9150509250925092565b61159781611104565b82525050565b60006020820190506115b2600083018461158e565b92915050565b7f4e487b7100000000000000000000000000000000000000000000000000000000600052603260045260246000fd5b7f4e487b7100000000000000000000000000000000000000000000000000000000600052601160045260246000fd5b600061162182611104565b91507fffffffffffffffffffffffffffffffffffffffffffffffffffffffffffffffff8203611653576116526115e7565b5b600182019050919050565b7f4e487b7100000000000000000000000000000000000000000000000000000000600052602260045260246000fd5b600060028204905060018216806116a557607f821691505b6020821081036116b8576116b761165e565b5b50919050565b60006116c982611104565b91506116d483611104565b9250828210156116e7576116e66115e7565b5b828203905092915050565b60006116fd82611104565b915061170883611104565b9250827fffffffffffffffffffffffffffffffffffffffffffffffffffffffffffffffff0382111561173d5761173c6115e7565b5b82820190509291505056fea26469706673582212207347d7bdd01a67fedad3b9a465d744125935fa35c8466f657a5dd1e5042258d964736f6c634300080d0033",
  "immutableReferences": {},
  "source": "// SPDX-License-Identifier: MIT\npragma solidity ^0.8.1;\n\ncontract UPAY {\n    address[] allAddress;\n     struct transaction{\n        address from;\n        address to;\n        uint256 time;\n        uint256 balance;\n    }\n    struct userDetails {\n        address Address;\n        string Name;\n        uint256 balance;\n        bool isAvailabe;\n        uint256 totalTransaction;\n    }\n\n    transaction[] transaction_history;\n   \n    mapping(address => userDetails) users;\n\n    function getMyDetails() public view returns (userDetails memory) {\n        return users[msg.sender];\n    }\n\n    function sendBalance(address Address, uint256 balance,uint256 time) public {\n        if (users[Address].isAvailabe) {\n            if (\n                users[msg.sender].isAvailabe &&\n                users[msg.sender].balance >= balance\n                \n            ) {\n                users[msg.sender].balance = users[msg.sender].balance - balance;\n                users[Address].balance = users[Address].balance + balance;\n                users[Address].totalTransaction++;\n                users[msg.sender].totalTransaction++;\n                transaction memory th = transaction(msg.sender,Address,time,balance);\n                transaction_history.push(th);\n               \n            }\n        }\n    }\n\n    function myBalance() public view returns (uint256) {\n        return users[msg.sender].balance;\n    }\n\n    function createAccount(string memory _name) public {\n        if (users[msg.sender].isAvailabe) {\n            return;\n        }\n        userDetails memory details = userDetails(msg.sender, _name, 20, true,0);\n        users[msg.sender] = details;\n        allAddress.push(msg.sender);\n    }\n\n    function getAllAdress() public view returns (address[] memory) {\n        return allAddress;\n    }\n\n    function getMyName() public view returns (string memory) {\n        return users[msg.sender].Name;\n    }\n     function getMyAddress() public view returns (address) {\n        return msg.sender;\n    }\n\n\n    function doIHaveAccount() public view returns (bool){\n        return users[msg.sender].isAvailabe;\n    }\n\n\n    function getMyTransactionHistory() public view returns(transaction[] memory){\n        transaction[] memory ret = new transaction[](users[msg.sender].totalTransaction);\n        for(uint256 i = 0;i<transaction_history.length;i++){\n            if(transaction_history[i].from==msg.sender || transaction_history[i].to==msg.sender){\n                ret[i]=(transaction_history[i]);\n            }\n        }\n\n        return ret;\n    }\n\n\n}\n",
  "sourcePath": "/Users/reazahammed/Desktop/blockchain/contracts/UPAY.sol",
  "compiler": {
    "name": "solc",
    "version": "0.8.13+commit.abaa5c0e.Emscripten.clang"
  },
  "schemaVersion": "3.4.6",
  "updatedAt": "2022-03-23T09:10:57.101Z",
  "networkType": "ethereum",
  "devdoc": {
    "kind": "dev",
    "methods": {},
    "version": 1
  },
  "userdoc": {
    "kind": "user",
    "methods": {},
    "version": 1
  }
}